{
  "abi": [
    {
      "inputs": [
        {
          "internalType": "uint256",
          "name": "_initialSupply",
          "type": "uint256"
        },
        {
          "internalType": "address",
          "name": "_lock",
          "type": "address"
        },
        {
          "internalType": "address",
          "name": "_tokenManagerAddress",
          "type": "address"
        }
      ],
      "payable": false,
      "stateMutability": "nonpayable",
      "type": "constructor"
    },
    {
      "constant": true,
      "inputs": [
        {
          "internalType": "address",
          "name": "from",
          "type": "address"
        },
        {
          "internalType": "address",
          "name": "recipient",
          "type": "address"
        },
        {
          "internalType": "address",
          "name": "referrer",
          "type": "address"
        },
        {
          "internalType": "bytes",
          "name": "data",
          "type": "bytes"
        }
      ],
      "name": "keyPurchasePrice",
      "outputs": [
        {
          "internalType": "uint256",
          "name": "minKeyPrice",
          "type": "uint256"
        }
      ],
      "payable": false,
      "stateMutability": "view",
      "type": "function"
    },
    {
      "constant": true,
      "inputs": [],
      "name": "lockAddress",
      "outputs": [
        {
          "internalType": "address",
          "name": "",
          "type": "address"
        }
      ],
      "payable": false,
      "stateMutability": "view",
      "type": "function"
    },
    {
      "constant": false,
      "inputs": [
        {
          "internalType": "address",
          "name": "",
          "type": "address"
        },
        {
          "internalType": "address",
          "name": "",
          "type": "address"
        },
        {
          "internalType": "address",
          "name": "",
          "type": "address"
        },
        {
          "internalType": "bytes",
          "name": "data",
          "type": "bytes"
        },
        {
          "internalType": "uint256",
          "name": "",
          "type": "uint256"
        },
        {
          "internalType": "uint256",
          "name": "",
          "type": "uint256"
        }
      ],
      "name": "onKeyPurchase",
      "outputs": [],
      "payable": false,
      "stateMutability": "nonpayable",
      "type": "function"
    },
    {
      "constant": true,
      "inputs": [
        {
          "internalType": "uint256",
          "name": "n",
          "type": "uint256"
        }
      ],
      "name": "round",
      "outputs": [
        {
          "internalType": "uint256",
          "name": "",
          "type": "uint256"
        }
      ],
      "payable": false,
      "stateMutability": "pure",
      "type": "function"
    },
    {
      "constant": true,
      "inputs": [],
      "name": "tokenSupply",
      "outputs": [
        {
          "internalType": "uint256",
          "name": "",
          "type": "uint256"
        }
      ],
      "payable": false,
      "stateMutability": "view",
      "type": "function"
    }
  ],
  "address": "0x17d3e2f064A09848b8C62FcDB6606E7330A8cdd2",
  "args": [
    42,
    "0x616a27F4447E563501630C728F36997A51D59b61",
    "0xd718388E922e5D23E3349dACb5d8A283f63f95e4"
  ],
  "bytecode": "0x608060405234801561001057600080fd5b50604051610c2d380380610c2d8339818101604052606081101561003357600080fd5b810190808051906020019092919080519060200190929190805190602001909291905050508260008190555081600160006101000a81548173ffffffffffffffffffffffffffffffffffffffff021916908373ffffffffffffffffffffffffffffffffffffffff16021790555080600260006101000a81548173ffffffffffffffffffffffffffffffffffffffff021916908373ffffffffffffffffffffffffffffffffffffffff160217905550505050610b3a806100f36000396000f3fe608060405234801561001057600080fd5b50600436106100575760003560e01c8063221c1fd11461005c57806334d5f37b146101495780637824407f1461018b5780637da3f613146101a957806398499657146101f3575b600080fd5b6101336004803603608081101561007257600080fd5b81019080803573ffffffffffffffffffffffffffffffffffffffff169060200190929190803573ffffffffffffffffffffffffffffffffffffffff169060200190929190803573ffffffffffffffffffffffffffffffffffffffff169060200190929190803590602001906401000000008111156100ef57600080fd5b82018360208201111561010157600080fd5b8035906020019184600183028401116401000000008311171561012357600080fd5b90919293919293905050506102e0565b6040518082815260200191505060405180910390f35b6101756004803603602081101561015f57600080fd5b810190808035906020019092919050505061036e565b6040518082815260200191505060405180910390f35b6101936103df565b6040518082815260200191505060405180910390f35b6101b16103e5565b604051808273ffffffffffffffffffffffffffffffffffffffff1673ffffffffffffffffffffffffffffffffffffffff16815260200191505060405180910390f35b6102de600480360360c081101561020957600080fd5b81019080803573ffffffffffffffffffffffffffffffffffffffff169060200190929190803573ffffffffffffffffffffffffffffffffffffffff169060200190929190803573ffffffffffffffffffffffffffffffffffffffff1690602001909291908035906020019064010000000081111561028657600080fd5b82018360208201111561029857600080fd5b803590602001918460018302840111640100000000831117156102ba57600080fd5b9091929391929390803590602001909291908035906020019092919050505061040b565b005b60003373ffffffffffffffffffffffffffffffffffffffff166310e569736040518163ffffffff1660e01b815260040160206040518083038186803b15801561032857600080fd5b505afa15801561033c573d6000803e3d6000fd5b505050506040513d602081101561035257600080fd5b8101908080519060200190929190505050905095945050505050565b60008067016345785d8a000080600185038161038657fe5b04029050600067016345785d8a000080600167016345785d8a0000870103816103ab57fe5b0402905060006002828401816103bd57fe5b049050808510156103d3578293505050506103da565b8193505050505b919050565b60005481565b600160009054906101000a900473ffffffffffffffffffffffffffffffffffffffff1681565b600160009054906101000a900473ffffffffffffffffffffffffffffffffffffffff1673ffffffffffffffffffffffffffffffffffffffff163373ffffffffffffffffffffffffffffffffffffffff16146104ce576040517f08c379a00000000000000000000000000000000000000000000000000000000081526004018080602001828103825260138152602001807f554e415554484f52495a45445f4143434553530000000000000000000000000081525060200191505060405180910390fd5b600061051d85858080601f016020809104026020016040519081016040528093929190818152602001838380828437600081840152601f19601f82011690508083019250505050505050610863565b90508073ffffffffffffffffffffffffffffffffffffffff163373ffffffffffffffffffffffffffffffffffffffff1614156105c1576040517f08c379a000000000000000000000000000000000000000000000000000000000815260040180806020018281038252600c8152602001807f4d494e545f544f5f53454c46000000000000000000000000000000000000000081525060200191505060405180910390fd5b6000339050600080815480929190600101919050555060006105e4600054610871565b9050600061064d670de0b6b3a764000061063c6801000000000000018061062b68035269e12f346e498061061a88600f0b610894565b600f0b6109c790919063ffffffff16565b600f0b6109c790919063ffffffff16565b600f0b610a4a90919063ffffffff16565b9050600061065a8261036e565b9050600354811115610793578060038190555060008473ffffffffffffffffffffffffffffffffffffffff16639d76ea586040518163ffffffff1660e01b815260040160206040518083038186803b1580156106b557600080fd5b505afa1580156106c9573d6000803e3d6000fd5b505050506040513d60208110156106df57600080fd5b810190808051906020019092919050505090508473ffffffffffffffffffffffffffffffffffffffff1663a2e4cd2e83836040518363ffffffff1660e01b8152600401808381526020018273ffffffffffffffffffffffffffffffffffffffff1673ffffffffffffffffffffffffffffffffffffffff16815260200192505050600060405180830381600087803b15801561077957600080fd5b505af115801561078d573d6000803e3d6000fd5b50505050505b600260009054906101000a900473ffffffffffffffffffffffffffffffffffffffff1673ffffffffffffffffffffffffffffffffffffffff166340c10f198660016040518363ffffffff1660e01b8152600401808373ffffffffffffffffffffffffffffffffffffffff1673ffffffffffffffffffffffffffffffffffffffff16815260200182815260200192505050600060405180830381600087803b15801561083d57600080fd5b505af1158015610851573d6000803e3d6000fd5b50505050505050505050505050505050565b600060148201519050919050565b6000677fffffffffffffff82111561088857600080fd5b604082901b9050919050565b60008082600f0b136108a557600080fd5b6000809050600083600f0b90506801000000000000000081126108d057604081901d90506040820191505b64010000000081126108ea57602081901d90506020820191505b62010000811261090257601081901d90506010820191505b610100811261091957600881901d90506008820191505b6010811261092f57600481901d90506004820191505b6004811261094557600281901d90506002820191505b60028112610954576001820191505b60006040808403901b9050600083607f0386600f0b600082121561097457fe5b901b9050600067800000000000000090505b60008113156109ba578182029150600060ff83901c905080607f0183901c92508082028401935050600181901d9050610986565b5081945050505050919050565b60008082600f0b14156109d957600080fd5b600082600f0b604085600f0b901b816109ee57fe5b0590507fffffffffffffffffffffffffffffffff80000000000000000000000000000000600f0b8112158015610a3757506f7fffffffffffffffffffffffffffffff600f0b8113155b610a4057600080fd5b8091505092915050565b600080821415610a5d5760009050610aff565b600083600f0b1215610a6e57600080fd5b600060406fffffffffffffffffffffffffffffffff841685600f0b02901c90506000608084901c85600f0b02905077ffffffffffffffffffffffffffffffffffffffffffffffff811115610ac157600080fd5b604081901b9050817fffffffffffffffffffffffffffffffffffffffffffffffffffffffffffffffff03811115610af757600080fd5b818101925050505b9291505056fea265627a7a723158206c0bb06211d12e9def8a27a6fbf1eb41bc9ff19cb606fa2082eb72882c49b6de64736f6c63430005110032"
}