{
  "abi": [
    {
      "inputs": [
        {
          "internalType": "uint256",
          "name": "_initialSupply",
          "type": "uint256"
        },
        {
          "internalType": "address",
          "name": "_lock",
          "type": "address"
        },
        {
          "internalType": "address",
          "name": "_tokenManagerAddress",
          "type": "address"
        }
      ],
      "payable": false,
      "stateMutability": "nonpayable",
      "type": "constructor"
    },
    {
      "constant": true,
      "inputs": [
        {
          "internalType": "address",
          "name": "",
          "type": "address"
        },
        {
          "internalType": "address",
          "name": "",
          "type": "address"
        },
        {
          "internalType": "address",
          "name": "",
          "type": "address"
        },
        {
          "internalType": "bytes",
          "name": "",
          "type": "bytes"
        }
      ],
      "name": "keyPurchasePrice",
      "outputs": [
        {
          "internalType": "uint256",
          "name": "minKeyPrice",
          "type": "uint256"
        }
      ],
      "payable": false,
      "stateMutability": "view",
      "type": "function"
    },
    {
      "constant": true,
      "inputs": [],
      "name": "lockAddress",
      "outputs": [
        {
          "internalType": "address",
          "name": "",
          "type": "address"
        }
      ],
      "payable": false,
      "stateMutability": "view",
      "type": "function"
    },
    {
      "constant": false,
      "inputs": [
        {
          "internalType": "address",
          "name": "",
          "type": "address"
        },
        {
          "internalType": "address",
          "name": "",
          "type": "address"
        },
        {
          "internalType": "address",
          "name": "",
          "type": "address"
        },
        {
          "internalType": "bytes",
          "name": "data",
          "type": "bytes"
        },
        {
          "internalType": "uint256",
          "name": "",
          "type": "uint256"
        },
        {
          "internalType": "uint256",
          "name": "",
          "type": "uint256"
        }
      ],
      "name": "onKeyPurchase",
      "outputs": [],
      "payable": false,
      "stateMutability": "nonpayable",
      "type": "function"
    },
    {
      "constant": true,
      "inputs": [],
      "name": "tokenSupply",
      "outputs": [
        {
          "internalType": "uint256",
          "name": "",
          "type": "uint256"
        }
      ],
      "payable": false,
      "stateMutability": "view",
      "type": "function"
    }
  ],
  "address": "0x0BD3FdC781C6682c8052130da74cb78B0cb06d5D",
  "args": [
    2,
    "0xda2Bb776710ce1D1B4c6d35a3FCc243Bd92F382b",
    "0x757734Fbd72343DD73327e5a504aCfE747eECDFD",
    "0x62206dc3e8698effd6Fb92b818EF428a2c9A05Ea",
    "0xE2E1344ccE5A11D6cEB048077B96722D3D00a686"
  ],
  "bytecode": "0x608060405234801561001057600080fd5b5060405161101f38038061101f833981810160405260a081101561003357600080fd5b8101908080519060200190929190805190602001909291908051906020019092919080519060200190929190805190602001909291905050508460008190555083600160006101000a81548173ffffffffffffffffffffffffffffffffffffffff021916908373ffffffffffffffffffffffffffffffffffffffff16021790555082600260006101000a81548173ffffffffffffffffffffffffffffffffffffffff021916908373ffffffffffffffffffffffffffffffffffffffff16021790555081600360006101000a81548173ffffffffffffffffffffffffffffffffffffffff021916908373ffffffffffffffffffffffffffffffffffffffff16021790555080600460006101000a81548173ffffffffffffffffffffffffffffffffffffffff021916908373ffffffffffffffffffffffffffffffffffffffff1602179055505050505050610e948061018b6000396000f3fe608060405234801561001057600080fd5b506004361061004c5760003560e01c8063221c1fd1146100515780637824407f1461013e5780637da3f6131461015c57806398499657146101a6575b600080fd5b6101286004803603608081101561006757600080fd5b81019080803573ffffffffffffffffffffffffffffffffffffffff169060200190929190803573ffffffffffffffffffffffffffffffffffffffff169060200190929190803573ffffffffffffffffffffffffffffffffffffffff169060200190929190803590602001906401000000008111156100e457600080fd5b8201836020820111156100f657600080fd5b8035906020019184600183028401116401000000008311171561011857600080fd5b9091929391929390505050610293565b6040518082815260200191505060405180910390f35b610146610321565b6040518082815260200191505060405180910390f35b610164610327565b604051808273ffffffffffffffffffffffffffffffffffffffff1673ffffffffffffffffffffffffffffffffffffffff16815260200191505060405180910390f35b610291600480360360c08110156101bc57600080fd5b81019080803573ffffffffffffffffffffffffffffffffffffffff169060200190929190803573ffffffffffffffffffffffffffffffffffffffff169060200190929190803573ffffffffffffffffffffffffffffffffffffffff1690602001909291908035906020019064010000000081111561023957600080fd5b82018360208201111561024b57600080fd5b8035906020019184600183028401116401000000008311171561026d57600080fd5b9091929391929390803590602001909291908035906020019092919050505061034d565b005b60003373ffffffffffffffffffffffffffffffffffffffff166310e569736040518163ffffffff1660e01b815260040160206040518083038186803b1580156102db57600080fd5b505afa1580156102ef573d6000803e3d6000fd5b505050506040513d602081101561030557600080fd5b8101908080519060200190929190505050905095945050505050565b60005481565b600160009054906101000a900473ffffffffffffffffffffffffffffffffffffffff1681565b600160009054906101000a900473ffffffffffffffffffffffffffffffffffffffff1673ffffffffffffffffffffffffffffffffffffffff163373ffffffffffffffffffffffffffffffffffffffff1614610410576040517f08c379a00000000000000000000000000000000000000000000000000000000081526004018080602001828103825260138152602001807f554e415554484f52495a45445f4143434553530000000000000000000000000081525060200191505060405180910390fd5b600061045f85858080601f016020809104026020016040519081016040528093929190818152602001838380828437600081840152601f19601f82011690508083019250505050505050610ad5565b9050600033905060008081548092919060010191905055506000610484600054610b5a565b905060006104ed670de0b6b3a76400006104dc680100000000000001806104cb68035269e12f346e49806104ba88600f0b610b7d565b600f0b610cb090919063ffffffff16565b600f0b610cb090919063ffffffff16565b600f0b610d3390919063ffffffff16565b905060006104fa82610dee565b90506005548111156109c9578060058190555060008473ffffffffffffffffffffffffffffffffffffffff16639d76ea586040518163ffffffff1660e01b815260040160206040518083038186803b15801561055557600080fd5b505afa158015610569573d6000803e3d6000fd5b505050506040513d602081101561057f57600080fd5b810190808051906020019092919050505090508473ffffffffffffffffffffffffffffffffffffffff1663a2e4cd2e83836040518363ffffffff1660e01b8152600401808381526020018273ffffffffffffffffffffffffffffffffffffffff1673ffffffffffffffffffffffffffffffffffffffff16815260200192505050600060405180830381600087803b15801561061957600080fd5b505af115801561062d573d6000803e3d6000fd5b50505050600081905060008173ffffffffffffffffffffffffffffffffffffffff166370a08231600160009054906101000a900473ffffffffffffffffffffffffffffffffffffffff166040518263ffffffff1660e01b8152600401808273ffffffffffffffffffffffffffffffffffffffff1673ffffffffffffffffffffffffffffffffffffffff16815260200191505060206040518083038186803b1580156106d757600080fd5b505afa1580156106eb573d6000803e3d6000fd5b505050506040513d602081101561070157600080fd5b81019080805190602001909291905050509050683635c9adc5dea0000081106109c5576000605a90506000816064848161073757fe5b040290508873ffffffffffffffffffffffffffffffffffffffff1663f3fef3a386836040518363ffffffff1660e01b8152600401808373ffffffffffffffffffffffffffffffffffffffff1673ffffffffffffffffffffffffffffffffffffffff16815260200182815260200192505050600060405180830381600087803b1580156107c257600080fd5b505af11580156107d6573d6000803e3d6000fd5b50505050600360009054906101000a900473ffffffffffffffffffffffffffffffffffffffff1673ffffffffffffffffffffffffffffffffffffffff166394d304e36000600460009054906101000a900473ffffffffffffffffffffffffffffffffffffffff1688856001430360018060006040518963ffffffff1660e01b815260040180806020018a1515151581526020018973ffffffffffffffffffffffffffffffffffffffff1673ffffffffffffffffffffffffffffffffffffffff1681526020018873ffffffffffffffffffffffffffffffffffffffff1673ffffffffffffffffffffffffffffffffffffffff1681526020018781526020018667ffffffffffffffff1667ffffffffffffffff1681526020018567ffffffffffffffff1667ffffffffffffffff1681526020018460ff1660ff1681526020018367ffffffffffffffff1667ffffffffffffffff168152602001828103825260148152602001807f4c6f636b65642e667969206469766964656e64730000000000000000000000008152506020019950505050505050505050602060405180830381600087803b15801561098657600080fd5b505af115801561099a573d6000803e3d6000fd5b505050506040513d60208110156109b057600080fd5b81019080805190602001909291905050505050505b5050505b600073ffffffffffffffffffffffffffffffffffffffff168573ffffffffffffffffffffffffffffffffffffffff1614610ac757600260009054906101000a900473ffffffffffffffffffffffffffffffffffffffff1673ffffffffffffffffffffffffffffffffffffffff166340c10f1986670de0b6b3a76400006040518363ffffffff1660e01b8152600401808373ffffffffffffffffffffffffffffffffffffffff1673ffffffffffffffffffffffffffffffffffffffff16815260200182815260200192505050600060405180830381600087803b158015610aae57600080fd5b505af1158015610ac2573d6000803e3d6000fd5b505050505b505050505050505050505050565b60006014825114610b4e576040517f08c379a00000000000000000000000000000000000000000000000000000000081526004018080602001828103825260148152602001807f494e56414c49445f42595445535f4c454e47544800000000000000000000000081525060200191505060405180910390fd5b60148201519050919050565b6000677fffffffffffffff821115610b7157600080fd5b604082901b9050919050565b60008082600f0b13610b8e57600080fd5b6000809050600083600f0b9050680100000000000000008112610bb957604081901d90506040820191505b6401000000008112610bd357602081901d90506020820191505b620100008112610beb57601081901d90506010820191505b6101008112610c0257600881901d90506008820191505b60108112610c1857600481901d90506004820191505b60048112610c2e57600281901d90506002820191505b60028112610c3d576001820191505b60006040808403901b9050600083607f0386600f0b6000821215610c5d57fe5b901b9050600067800000000000000090505b6000811315610ca3578182029150600060ff83901c905080607f0183901c92508082028401935050600181901d9050610c6f565b5081945050505050919050565b60008082600f0b1415610cc257600080fd5b600082600f0b604085600f0b901b81610cd757fe5b0590507fffffffffffffffffffffffffffffffff80000000000000000000000000000000600f0b8112158015610d2057506f7fffffffffffffffffffffffffffffff600f0b8113155b610d2957600080fd5b8091505092915050565b600080821415610d465760009050610de8565b600083600f0b1215610d5757600080fd5b600060406fffffffffffffffffffffffffffffffff841685600f0b02901c90506000608084901c85600f0b02905077ffffffffffffffffffffffffffffffffffffffffffffffff811115610daa57600080fd5b604081901b9050817fffffffffffffffffffffffffffffffffffffffffffffffffffffffffffffffff03811115610de057600080fd5b818101925050505b92915050565b60008067016345785d8a0000806001850381610e0657fe5b04029050600067016345785d8a000080600167016345785d8a000087010381610e2b57fe5b040290506000600282840181610e3d57fe5b04905080851015610e5357829350505050610e5a565b8193505050505b91905056fea265627a7a72315820ca4a3556ecd802a216300d37a24d5029233df7919d3533cccab4019431fffbaf64736f6c63430005110032",
  "userdoc": {
    "methods": {
      "onKeyPurchase(address,address,address,bytes,uint256,uint256)": {
        "notice": "If the lock owner has registered an implementer then this hook is called with every key sold. from the msg.sender making the purchase recipient the account which will be granted a key referrer the account which referred this key sale"
      }
    }
  },
  "devdoc": {
    "methods": {
      "constructor": {
        "details": "_initialSupply must be > 0 to avoid a revert",
        "params": {
          "_initialSupply": "The initial value for tokenSupply",
          "_lock": "The address of the lock configured to use this hook."
        }
      },
      "onKeyPurchase(address,address,address,bytes,uint256,uint256)": {
        "details": "the lock's address is the `msg.sender` when this function is called",
        "params": {
          "data": "arbitrary data populated by the front-end which initiated the sale minKeyPrice the price including any discount granted from calling this hook's `keyPurchasePrice` function pricePaid the value/pricePaid included with the purchase transaction"
        }
      }
    }
  },
  "storageLayout": {
    "storage": [
      {
        "astId": 4094,
        "contract": "contracts/BondingCurveHook.sol:BondingCurveHook",
        "label": "tokenSupply",
        "offset": 0,
        "slot": "0",
        "type": "t_uint256"
      },
      {
        "astId": 4096,
        "contract": "contracts/BondingCurveHook.sol:BondingCurveHook",
        "label": "lockAddress",
        "offset": 0,
        "slot": "1",
        "type": "t_address"
      },
      {
        "astId": 4098,
        "contract": "contracts/BondingCurveHook.sol:BondingCurveHook",
        "label": "tokenManagerAddress",
        "offset": 0,
        "slot": "2",
        "type": "t_address"
      },
      {
        "astId": 4100,
        "contract": "contracts/BondingCurveHook.sol:BondingCurveHook",
        "label": "currentPrice",
        "offset": 0,
        "slot": "3",
        "type": "t_uint256"
      }
    ],
    "types": {
      "t_address": {
        "encoding": "inplace",
        "label": "address",
        "numberOfBytes": "20"
      },
      "t_uint256": {
        "encoding": "inplace",
        "label": "uint256",
        "numberOfBytes": "32"
      }
    }
  }
}